:020000040800F2
:10000000C0110024010A0008D1060008ED0900080B
:10001000ED090008ED090008ED09000800000000E6
:10002000000000000000000000000000C10A0008FD
:10003000ED09000800000000610A0008911B00089B
:10004000390C0008390C0008390C0008390C00087C
:10005000390C0008390C0008390C0008390C00086C
:10006000390C0008390C0008390C0008390C00085C
:10007000390C0008390C0008390C0008390C00084C
:1002CC0053B94AB9002908BF00281CBF4FF0FF31B1
:1002DC004FF0FF3000F00CB8ADF1080C6DE904CE16
:1002EC0000F008F8DDF804E0DDE9022304B0704703
:1002FC00704700BF2DE9F04786468C460846089E9D
:10030C00154674461946002B40F0C2808542B2FA5D
:10031C0082F245D94AB1C2F1200300FA02FC2EFA4E
:10032C0003F3954043EA0C0C94404FEA154EA8B2E7
:10033C00BCFBFEF8230C0EFB18CC08FB00F943EABF
:10034C000C43994528D9EB1808F1FF3704D299458D
:10035C0002D9A8F102072B44A3EB0903A4B2B3FB07
:10036C00FEFC0EFB1C330CFB00F044EA0344A042E1
:10037C0014D92C190CF1FF3304D2A04202D9ACF1E0
:10038C0002032C44241A43EA07401EB1D440002334
:10039C0034607360BDE8F0874746DDE76346F1E7FC
:1003AC0092BB431B01214FEA154EAFB2B3FBFEFCCF
:1003BC00200C0EFB1C330CFB07F840EA034398455A
:1003CC0062D9EB180CF1FF3004D2984502D9ACF18C
:1003DC0002002B44A3EB0803A4B2B3FBFEFC0EFB00
:1003EC001C330CFB07F744EA0344A7424ED92C19E3
:1003FC000CF1FF3304D2A74202D9ACF102032C4416
:10040C00E41B43EA0040C0E7C2F1200320FA03F1E9
:10041C00954090402EFA03F303434FEA154EAFB2CA
:10042C00B1FBFEFC0EFB1C10190C0CFB07F841EA8F
:10043C000041884504FA02F422D969180CF1FF3006
:10044C0004D2884502D9ACF102002944A1EB080181
:10045C009BB2B1FBFEFC0EFB1C110CFB07F743EA35
:10046C0001439F420ED9EB180CF1FF3104D29F428D
:10047C0002D9ACF102012B44DB1B41EA004192E7AB
:10048C006046E3E76146F7E76046A3E76346B7E7F4
:10049C00834206D916B9002108467BE7C6E900E07D
:1004AC00F9E7B3FA83F78FB9834201D3724508D8C1
:1004BC00BEEB020460EB030301209C461EB9002135
:1004CC0068E73846FAE7C6E9004CF8E7C7F1200CB4
:1004DC00BB4022FA0CF41C432EFA0CF120FA0CF35C
:1004EC00B84001434FEA14490EFA07F5B3FBF9F88B
:1004FC001FFA84FE09FB18300B0C08FB0EFA43EABA
:10050C0000439A4502FA07F240D9E31808F1FF308C
:10051C0004D29A4502D9A8F102002344A3EB0A03A2
:10052C0089B2B3FBF9F809FB183308FB0EFE41EA5C
:10053C0003418E452CD9611808F1FF3304D28E4546
:10054C0002D9A8F10203214443EA0040A0FB02981F
:10055C00A1EB0E014145CE46434602D306D14D4593
:10056C0004D2B9EB020E68EB04030138002EA6D0BE
:10057C00B5EB0E0261EB030101FA0CFC22FA07F356
:10058C004CEA0303F940C6E9003198E74046C5E759
:10059C004346D9E708B50D4C08210D4E226920467B
:1005AC00A568136843F4807313600A4A2B68984754
:1005BC004FF480716B6920469847304602F0C0FDBD
:1005CC00002141F2883003F092F9F1E7CC3C0008AD
:1005DC002245000801000600014B1B68184700BFAC
:1005EC0000000024014B1860704700BF000000247D
:1005FC0030B585B004460D4610220021684603F044
:10060C00EAF902232A4621468DF802306846034B4C
:10061C00019302F055FA05B030BD00BFE5050008A6
:10062C0080B505460E461746984601F0CBFFDFF81D
:10063C002090034603F03AFA0446424649F800304B
:10064C0039463046A84754F8090000F0EDF900BFD0
:10065C0008000000054B00205A6822F002025A6084
:10066C005A6822F001025A60704700BF0010005C0B
:10067C000C4B0D4A1A600D4AD36823F0070343F064
:10068C000203D3600A4B1A6841F20303B3EB124F17
:10069C0006D1084AD2F8083143F00103C2F80831F8
:1006AC00704700BF380000240090D0030048025867
:1006BC000010005C00800051014B0360012070476A
:1006CC002C43000808B5034B1B689847BDE808404D
:1006DC0000F026B80400002430BFFFF7FDBF00BFB8
:1006EC002DE9F0410B4E0546DFF82C80324606EB27
:1006FC000807CC1B0949204603F05FF9A019083CF8
:10070C004246002103F067F907F108002C67BDE8A9
:10071C00F08100BF0000000004000000E842000867
:10072C00054B5A699B689A4204D0044A536843F0BB
:10073C0080535360704700BFBC03002400ED00E001
:10074C00264B70B515469A6A064612F0100F9A6A37
:10075C0014BF1124102412F0080F9A6A18BF122427
:10076C0092070AD5586B9A6A140634D519B19A6A4D
:10077C0022F080029A62132401E06FF01500174BEF
:10078C009A6A12F0010F9A6A18BF142412F0200F03
:10079C009A6A18BF1524D20602D49B6A9B070AD505
:1007AC000E4B5B68190506D5314600F0F9F910B10E
:1007BC0080F309880224094B9A6A920603D55A6A77
:1007CC0022F400525A629A6A204642F0FF029A6260
:1007DC0000232B7070BD6FF01500CCE700ED00E02E
:1007EC00134B9A6A12F0007F9A6A14BF1E201D20C8
:1007FC0012F0807F9A6A18BF1F2012F4002F9A6A99
:10080C0018BF212012F4802F9A6A18BF222012F4EC
:10081C00003F9A6A18BF232012F4803F9A6A6FEA4D
:10082C00024218BF24206FEA12429A62704700BF3E
:10083C0000ED00E0194B024610B5986A9C6A10F462
:10084C00805F14BF1720162014F4006F9C6A18BF29
:10085C001820A40509D5986B986A000404D51AB120
:10086C009A6A22F400429A6219200C4B9A6A12F48A
:10087C00806F9A6A18BF1A20D2050CD49B6A13F4A5
:10088C00005F18BF1C20054A936A43F47F439362B0
:10089C0000230B7010BD1B20F5E700BF00ED00E03E
:1008AC00484BF0B55B688BB004460025C3F30803D6
:1008BC0085F31188BFF36F8F02F07F40B0F17F4F4B
:1008CC0011D102F00C0008280DD010074CBF0C46BB
:1008DC0001250022033B8DF80720032B05D8DFE808
:1008EC0003F0256468612C46F3E700239DF807208C
:1008FC00D2B902AE04F120072068083454F8041C65
:10090C003246BC4203C21646F6D1099A002D54D089
:10091C00C2F3080121B96FEA52226FEA422209920E
:10092C0002A9184602F01AFC0BB0F0BD254BDA6A8E
:10093C009107DAD4DA6A002AD7DBDA6A5200D4D506
:10094C005A69A16942F480725A61BFF34F8FBFF3A9
:10095C006F8F5A6931F8021C22F480725A61BFF30E
:10096C004F8FBFF36F8F4DF6027291420AD09A6A85
:10097C00D2B24AB10DF1070201212046FFF7E0FE89
:10098C000346B3E72368B1E79A6A12F47F4F05D0A8
:10099C000DF107010120FFF74DFFF1E79B6AB3F55D
:1009AC00803FA2D3FFF71CFFEAE70DF107020021FD
:1009BC00E3E70DF107010020EDE722F4FF7222F0CE
:1009CC000102ACE700ED00E0044B5A6942F0100262
:1009DC005A615A6922F008025A61704700ED00E032
:1009EC00EFF30880EFF3098101B57246FFF758FF6A
:1009FC0001BD00BF0A4880F30888102080F31188DD
:100A0C0008484FF40461401880F30988EFF3148010
:100A1C000221084380F31488BFF36F8F00F08EF827
:100A2C00C011002400040024084B9B6883420BD1A6
:100A3C00EFF3058343B1064B5A6842F080525A607B
:100A4C005A6A22F400425A6201F0C2BDBC0300246F
:100A5C0000ED00E014498A684FF030001044EFF3C9
:100A6C00098C80E8F01F102080F31288BFF36F8F81
:100A7C000E4F4FF000664A698A603E60106F0C4C56
:100A8C002060506F0023536780F3118804B5104623
:100A9C0000F0EAF8BDE8044002F1300090E8F01FE5
:100AAC008CF3098870470000BC03002404ED00E0BF
:100ABC00380200241EF0040F0CBFEFF30880EFF394
:100ACC000980816911F8021C0229FFD001B5724618
:100ADC0002F04AFB01BD00BF00B2002807DB012376
:100AEC00410900F01F00024A834042F82130704750
:100AFC0000E100E000B2013100284FEA0111C9B257
:100B0C0006DB00F1604000F5614080F8001370478F
:100B1C0000F00F00014B1954704700BF14ED00E0BA
:100B2C00044B054A23F07F039360BFF34F8FBFF351
:100B3C006F8F70470000000800ED00E008B5FFF76C
:100B4C00EFFF0B4AD2F8883023F47003C2F88830D8
:100B5C00EFF3148323F0040383F31488BFF36F8F34
:100B6C0001F03AFA01F056FE00F054F801F082FA66
:100B7C0000ED00E042F8203C203A009B074953600E
:100B8C00019B21F001019360029B9161D3604FF0B6
:100B9C008073D36100230265436770472D060008FC
:100BAC00094A0346906870B113F1160F006E05D018
:100BBC00A0F140029A4205D8834203D2814228BF59
:100BCC000020704700207047BC03002415460A4AD9
:100BDC000E4608B5094B9060026F1A6000F044F89D
:100BEC002C4686F309880020054B984720460021A7
:100BFC0000220023034C2047BC03002438020024AD
:100C0C00853100082D060008014B10221A6170472F
:100C1C0000ED00E0002304481021C2180133A32B7F
:100C2C0082F80013F9D1704700E100E008B5EFF34A
:100C3C000583064A103B02EBC30152F833004968A6
:100C4C008847BDE80840FFF76BBD00BF6C3D00084E
:100C5C00024B0121024A034800F076B8000005243B
:100C6C00000000243C430008026E4021044B403A33
:100C7C0018461A60034AC3E90112012100F06EB84C
:100C8C003C02002400000B15084AC2F898000B68BF
:100C9C0023F01F03034343F01003C2F89C308B680E
:100CAC0043F00103C2F8A030704700BF00ED00E034
:100CBC002DE9F0430E4685B01F4604464FF000095F
:100CCC00DFF85480B14523DA6068D8B13FB1411EDA
:100CDC0008421BD11F2819D92368194216D1236841
:100CEC00019302F05DFAA3680343D0B20393D8F8E2
:100CFC009050C5F30725013DA84207D801A9FFF77D
:100D0C00C3FF421C09F101090C34DBE76FF015023B
:100D1C00104605B0BDE8F08300ED00E0044B052261
:100D2C00C3F89420BFF34F8FBFF36F8F704700BF92
:100D3C0000ED00E0BFF35F8F024B0022C3F894205C
:100D4C00704700BF00ED00E010B5034C0123227882
:100D5C00FFF7AEFF207010BDEC0300240B4A08B562
:100D6C0000231278FFF7A4FF10F1160F07D0084AE2
:100D7C000021D2F89030C3F30723984200DB08BD62
:100D8C00C2F898000130C2F8A010F2E7EC0300247E
:100D9C0000ED00E0544B2DE9F043544C85B0D3F8F2
:100DAC0090302568C3F307239D4200F29A800020FF
:100DBC000C26FFF7BFFF85421AD14D4C68464D4FAC
:100DCC002570FFF779FC00250646DFF81C81DFF85B
:100DDC002891AE4213D1237800204349D1F89020BA
:100DEC00C2F30722934276DB0020FFF797FF42E025
:100DFC00616806FB0011FFF747FF0130DBE7009845
:100E0C004FEA051C00EB0511CB683B40B3F5000F16
:100E1C0048D00AD8B3F5001F30D0B3F5800F36D0C8
:100E2C00B3F5801F10D00135D3E7B3F1807F42D0EA
:100E3C00B3F1007FF7D150F80C30886802F0B0F9AC
:100E4C004A6840F4802009E050F80C30886802F0C1
:100E5C00A7F940F088504A6840F43020039020787D
:100E6C00CDE90123D8F89030C3F30723013B984216
:100E7C002AD96FF0150005B0BDE8F08350F80C309E
:100E8C00886802F08DF94A6840EA0900E6E750F8F4
:100E9C000C30886802F084F940F0E0604A6840F455
:100EAC000030DBE750F80C30886802F079F94A68BA
:100EBC0040F08270D2E750F80C30886802F070F97C
:100ECC004A6840F08870C9E701A9FFF7DDFE237876
:100EDC0001332370A7E7C1F898300133C1F8A000A3
:100EEC007CE74FF0FF30C6E700ED00E0E842000879
:100EFC00EC0300240000F0FF0000081108B5024BC1
:100F0C001B689847002008BD48020024034B044A84
:100F1C001860937843F002039370704748020024E2
:100F2C00080000240649074821F00701C1F11052BE
:100F3C0008B502F5A02202F0A9F8002008BD00BFF8
:100F4C00071200244C0200242DE9F0410546002430
:100F5C004FF001084FF0B0460E4F2A781319DBB250
:100F6C0008FA03F0D6F8883030EA03030AD152FAB3
:100F7C0084F3C6F8880057F833201AB107EBC30383
:100F8C005968904701346A78E3B29A42E5D2BDE8D9
:100F9C00F08100BF58020024044B03EB40000023F7
:100FAC00013320F8022B9942FADC704744000024EC
:100FBC0007B5062201210020FFF7EEFF00220620D4
:100FCC001146FFF797FD012107220846FFF7E4FFC2
:100FDC00002207201146FFF78DFD08220121022077
:100FEC00FFF7DAFF002208201146FFF783FD0922E4
:100FFC0001210320FFF7D0FF002209201146FFF743
:10100C0079FD0A2201210420FFF7C6FF00220A20E5
:10101C001146FFF76FFD052117220846FFF7BCFFAD
:10102C00002217201146FFF765FD282206210A2011
:10103C00FFF7B2FF002228201146FFF75BFD0223C9
:10104C00F4220748CDE9002383681B6823B1694665
:10105C00984703B05DF804FB6FF05700F9E700BF49
:10106C006C3B0008034680B1B0FA80F2C2F11F025B
:10107C00D2B2074931F912004FF0B042D2F88010C9
:10108C000B43C2F88030FFF727BDFF22F1E700BF0A
:10109C004400002430B5B0B1B0FA80F3C3F11F03A3
:1010AC00DBB20B4850F833408C4204D100EBC30543
:1010BC006D68954205D044B940F8331000EBC3007D
:1010CC004260002030BDFF23EBE76FF00F00F9E723
:1010DC005802002460B1B0FA80F3C3F11F03DBB2F5
:1010EC00044A002142F8331002EBC30251607047EE
:1010FC00FF23F5E75802002400F003020F2304320B
:10110C0092009340094A43EA900000F00303023333
:10111C0052F82320030C93FAA3F3B3FA83F302EAF5
:10112C00104003F01F03D840704700BF0004005864
:10113C00044B05489B6A03F00303022B18BF0020E5
:10114C00704700BF0044025800127A0008B50A4BE1
:10115C001B6903F03803102B09D0182B09D1FFF7AA
:10116C00E7FF40F2131380085843400808BD0348BA
:10117C00FBE70020F9E700BF0044025800127A0098
:10118C00394B10B518680B88C3F30B030D2B2CD8F7
:10119C0013B96FF0850027E0013B0C2BF9D801A0A7
:1011AC0050F823F01F120008E51100082512000862
:1011BC00631200082B1200089F1100089F110008F1
:1011CC002F1200083D1200084D1200085B12000897
:1011DC005B1200085B1200084FF4004010600B68B3
:1011EC00B3F5805F39D2002010BDD42B0FD003F69D
:1011FC002873C3F30B031C2BCBD8012404FA03F381
:10120C001A4C23421AD140F211142342C1D0400887
:10121C00E4E7FFF79BFFE1E74FF4FA40DEE7144801
:10122C00DCE7FFF785FF40F2131380085843D5E73E
:10123C00FFF77EFF40F21313800858438008CDE778
:10124C00FFF776FF40F2131380085843DFE7FFF7F0
:10125C006FFF0A23EAE70748C0E7C3F313330133F0
:10126C00B0FBF3F01060BEE7380000240010111141
:10127C00006CDC0200127A00994B37B5D3F8E020F1
:10128C0042F00072C3F8E020D3F8E02002F00072C4
:10129C000192019A1A6842F480221A601A6842F488
:1012AC0080321A601A689503FCD55A6F42F001021D
:1012BC005A678B4B5A6F9407FCD58A490A6842F4DB
:1012CC0080720A601A6F22F018021A671A6F42F0C5
:1012DC0001021A67824B1A6F9007FCD51A6842F408
:1012EC0080521A601A689104FCD51A6902F038020F
:1012FC00182A17D11A68520707D41A6842F001024B
:10130C001A60774A13685D07FCD5754B1A6922F091
:10131C0007021A611A6912F0380FFBD19A6922F090
:10132C000F029A616E4B1A6822F080721A601A686A
:10133C0022F080621A601A6822F080521A609A6A4F
:10134C0022F0030242F002029A629A6A22F47C7240
:10135C0042F040029A62DA6A22F00C02DA62DA6A2D
:10136C0042F00202DA621A6B22F4FF7222F00102DE
:10137C0042F489721A63DA6A22F00102DA621A6B99
:10138C0022F47E421A63DA6A42F48032DA621A6B11
:10139C0022F4FE0242F440321A63DA6A42F400325A
:1013AC00DA621A6B22F0FE4242F080721A63DA6A39
:1013BC0042F48022DA621A6842F080721A601A686B
:1013CC009401FCD59A6A22F47C3242F480529A62DF
:1013DC00DA6A22F0C00242F08002DA62DA6A22F0A3
:1013EC002002DA629A6B22F4FF7222F0010242F0C0
:1013FC0009029A63DA6A22F01002DA629A6B22F41A
:10140C007E429A63DA6A42F40022DA629A6B22F420
:10141C00FE029A63DA6A42F48012DA629A6B22F064
:10142C00FE429A63DA6A42F40012DA621A6842F0F7
:10143C0080621A602A4A13681801FCD5294B9A69F4
:10144C0022F440429A619A699104FCD5264DFFF72B
:10145C007DFE0446A84202D8244800F05FFC204BD5
:10146C009A6922F470629A619A6922F00F0242F032
:10147C0008029A61DA6922F0700242F04002DA61E5
:10148C00DA6922F4E06242F48062DA619A6922F04D
:10149C00700242F040029A611A6A22F0700242F025
:1014AC0040021A621A6922F0070242F003021A6122
:1014BC001A6902F03802182AFAD1AC4202D90B4848
:1014CC0000F02CFC074B9A6922F440429A619A690D
:1014DC009204FCD5064B0020064A1A6003B030BDBE
:1014EC000044025800480258BF2A6410C02A6410F5
:1014FC00380000248055C82008B5074802F078F958
:10150C0038B10648FFF702FD0448FFF76BF80020DE
:10151C0008BD6FF01200FBE72C3D00082D150008EC
:10152C000A2838B50446074D04D1AB680D2128466E
:10153C005B689847AB68E1B202485B689847204605
:10154C0038BD00BF2C3D00082DE9F843D0F80480CD
:10155C001746D0F810900D46D8F808001E4601F03A
:10156C0034FEB7F5001F044616D1D8F808402846BB
:10157C00FFF7C2FD84420CD1294601F026FE044639
:10158C0001F026FE2046FFF7A5FD0021204601F0C4
:10159C0028FE0020BDE8F883B7F5800F20D0B6F107
:1015AC00806F19D0B6F1C06F18D0B6F1007F1AD188
:1015BC0002264A460F492046FFF76CFDB0B9D8F811
:1015CC000810284601F036FE2046314601F009FE8F
:1015DC002046FFF747FDDCE70126EAE70326E8E7AC
:1015EC006FF08500D6E76FF01500D3E76FF00F00B2
:1015FC00D0E700BF6135000838B503690446586070
:10160C000A4D284602F0F4F860B1AB6861681B68BB
:10161C000C3123B12846984700EAE07038BD6FF0D2
:10162C005700F9E76FF01200F8E700BF6C3B0008B9
:10163C002DE9F047044600EBC10600251C4FB442CF
:10164C0001D1002014E02068C30600F01F0911D45A
:10165C00656845F02005C0F3481AC0F344201028F3
:10166C0023D857F82080B8F1000F0DD16FF012007D
:10167C00BDE8F087B9F1100F04D0B9F1110FEAD120
:10168C006568E8E73025E6E7404602F0B1F8002847
:10169C00ECD04B462A460AF00F01404601F070FF91
:1016AC00002804F10804CADAE2E76FF01500DFE75E
:1016BC0024440008F8B50C46036941685D68237939
:1016CC00012B15D09F1E7E427E41B6026279022A02
:1016DC0096BF444F4FF4005737F81270A279022A84
:1016EC0009D0042A2FD0003B18BF01231B0306E0AE
:1016FC004FF4C066EAE7B3FA83F35B091B07E279A0
:10170C000968012A14BF4FF0000C4FF4407CA5422D
:10171C001CD10A6822F0805222F4B05232431A4390
:10172C000A604B6823F440533B434B6043681A6890
:10173C00936823F4407343EA0C0393602968BDE873
:10174C00F84001F0C3BF4FF48053D8E7D1F800E064
:10175C000EF4C06E764506D0D1F800E02EF4C06EC3
:10176C004EEA06060E6041680E68716801F440513D
:10177C008F4204D0716821F4405139437160416843
:10178C000E68316801F010218B4204D0316821F0D1
:10179C0010210B433360436819688B6803F4407362
:1017AC009C4505D08B6823F4407343EA0C038B6093
:1017BC0043681B689968490405D5032A09D09A68BF
:1017CC0022F4804204E0032A03D19A6842F4804256
:1017DC009A6021682B68994203D001F077FF236847
:1017EC002B60F8BD1C450008F7B506464468056932
:1017FC005E48286001F0FCFF002800F0AD802868EE
:10180C00E16883681B68002B00F0AA8098470028C9
:10181C00C0F2A48001AA0021206A01F0C9FE0028B0
:10182C00C0F29C80019B002219791868FFF700FF19
:10183C000028C0F29380756833692C685F68236850
:10184C0023F001032360686801F0D2FF002800F048
:10185C008380D5E901018368DB6803B1984754E8BC
:10186C00003F43F00C0344E80032002AF7D139461C
:10187C003046FFF71FFF2B7D1BB1A36843F0080315
:10188C00A3606B7D1BB1636843F400436360AB7D65
:10189C001BB1636843F480336360EB7D1BB16368F9
:1018AC0043F4003363602B7E002B43D0304B9C42BF
:1018BC0026D0A3F54C439C4222D003F580639C4276
:1018CC001ED003F580639C421AD003F580639C42C2
:1018DC0016D003F544439C4212D0A3F51C439C4202
:1018EC000ED003F580639C420AD003F51C439C4246
:1018FC0006D003F580639C4202D01E4B9C4232D131
:10190C0073681A68936843F48043936023686A7E13
:10191C0023F0787343EA425323602368AA7E23F4AE
:10192C00F81343EA02432360EB7E1BB1A36843F434
:10193C000043A3602B7F1BB1236843F0005323604B
:10194C00236843F001032360E3699A02FCD5E36941
:10195C005B02FCD5002001E06FF0120003B0F0BD7B
:10196C006FF05700FAE76FF01500F7E76C3B0008D3
:10197C0000100140000C0058F8B5436802460E46B2
:10198C0091F805E01C68036908795D6801288B797A
:10199C0022D1BEF1020F40F28180022B1F464FF480
:1019AC00C0614FF4005C00F09380042B00F08A803F
:1019BC0028B1C31E012B40F288804FF48050BCF537
:1019CC00805F00F08F80BCF5405F00F08D80BCF133
:1019DC00000F1CD101231BE002280AD1BEF1020F1B
:1019EC0069D9022B1F464FF480610BD04FF4005C79
:1019FC00DBE7BEF1020F61D9022B1F4660D1002834
:101A0C006CD00021C31E012B5FD9002002270323B9
:101A1C0073455AD101F018FEB84256D1F3795BB335
:101A2C00012B63D1334B9C4226D0A3F54C439C42F3
:101A3C0022D003F580639C421ED003F580639C4248
:101A4C001AD003F580639C4216D003F544439C42A4
:101A5C0012D0A3F51C439C420ED003F580639C422C
:101A6C000AD003F51C439C4206D003F580639C42CC
:101A7C0002D0214B9C4228D123683146104623F0DA
:101A8C0001032360FFF716FE236843F00103236074
:101A9C0096E8030085E803000020F8BD4FF4C06110
:101AAC00164F022B37F81EC01F467FF47EAF78B955
:101ABC004FF0805083E74FF48061F1E70021EFE7AE
:101ACC00002193E700283FF478AF6FF08500E4E73E
:101ADC00C31E012BF9D90227002070E701464FF0F5
:101AEC00805094E7002393E7022391E7032B99D0CE
:101AFC00EBE700BF00100140000C00581C4500082B
:101B0C004FF0E0230F4910B59C691A6908689B696E
:101B1C0002F480320C4934B993B903464AB90A68C5
:101B2C001044C01A10BD002B08BF03460AB9A342CB
:101B3C00F5D90A6802440A604FF0E0221269EEE718
:101B4C000446F3E7B8030024B40300240A4B102224
:101B5C00002083F823204DF2D862084B1A604DF216
:101B6C00D762074B18604FF0E0235A6198611A69ED
:101B7C0042F007021A61704700ED00E0B803002440
:101B8C00B4030024684620F007018D4619B5FFF711
:101B9C00B7FF1149114B0868D3E90042001942F113
:101BAC000002C3E900020E4A00230B604DF2D86319
:101BBC00D2E90041001BB0FBF3F043431B1941F188
:101BCC000001C2E9003100F0FDFEFEF7A9FDBDE801
:101BDC0019408546704700BFB403002490000024D0
:101BEC00880000242DE9F041DFF8E08099B1421C17
:101BFC000BD14FF0E022136923F0010313614FF076
:101C0C007F43C8F80030BDE8F081D8F800600128A7
:101C1C0007DC00270BE0431CD8F80060F7D14FF429
:101C2C00987040F231139842A8BF1846471EEFF344
:101C3C001185102383F31288BFF36F8FFFF760FFBA
:101C4C00234C4FF0E0239969D4E9002380184FF01E
:101C5C00000243F10003C4E900031E4B1A601E4B43
:101C6C001A68831A2ED44DF2D86C0CFB073303F58B
:101C7C005643D733B3FBFCF7131A40F66D520CFBEB
:101C8C000733934238BF1346144A934228BF134676
:101C9C00C8F800304FF0E022013B906953610023FB
:101CAC0081429361A1EB0003D4E9001238BF9B1968
:101CBC005B1842F10002C4E9003285F31188BFF3CE
:101CCC006F8FA0E740F66D53E2E700BFB803002426
:101CDC0090000024B4030024880000248020FF001E
:101CEC0038B5EFF31185102383F31288BFF36F8F90
:101CFC00084B1C68084B1B68E41AFFF701FF85F3BF
:101D0C001188BFF36F8F4DF2D8632044B0FBF3F012
:101D1C0038BD00BF9000002488000024024610B596
:101D2C0078B14F498B6913F440433FD14D484E4C29
:101D3C001044A04207D28B6903F44043B3F5404FE3
:101D4C0051D101207CE04948494C1044A04246D96D
:101D5C0048481044A04244D947488242886900F45C
:101D6C00404007D9B0F5404FEBD08969012001F410
:101D7C0040414CE0B0F5404F45D1404B1344404AF4
:101D8C0093428CBF002301233E490A6822F00F02C4
:101D9C001A430A600A6802F00F029A425ED0086881
:101DAC0000F00F00C01A18BF012049E000232C4896
:101DBC00816901F44041B1F5404F2BD13249334890
:101DCC001144814246D92D49A0F574201144A0F547
:101DDC001070814240D92E498A42D5D9B1E70223ED
:101DEC00E5E70123E3E78B69002003F44043B3F5F7
:101DFC00004F4FF0030319D02649274C1144A14240
:101E0C0026D9264918E08969184601F44041B1F5F4
:101E1C00004FF0E7816901F44041B1F5004F10D15A
:101E2C001F4920481144814214D900201E491D4CE1
:101E3C001144A1420CD91D498A4282D80028A3D052
:101E4C0010BD0C491A481144814203D30020D3E73A
:101E5C000123F3E7022397E7012395E71846A1E74F
:101E6C00004802587FA77BF340D2DF03FFC4A7F7DB
:101E7C007F1D2C047FE2D3FB801D2C043FA901FCA9
:101E8C007F14EF0300200052BF9412F8BF56FE03DC
:101E9C00C056FE033FF1E9FDBF0E1602C00E16023E
:101EAC00FF1E0AFA7FF0FA027F0F05FD80F0FA029E
:101EBC00C0E1E40038B5EFF31185102383F31288E9
:101ECC00BFF36F8F064B9C6801F0A5FC85F311885E
:101EDC00BFF36F8F2046BDE83840FEF7A5BD00BFAD
:101EEC00BC03002438B50A4B53F82040013053F89A
:101EFC002050A54200D838BD606830B1037FDB07A5
:101F0C0001D401F08BFC0834F3E723689847FAE717
:101F1C00044500082B4B0122032070B52A4C86B0D7
:101F2C002A4D1A70FFF7DEFF00F0C4FD01F091FCA2
:101F3C000420FFF7D7FF26463034AE4210D3224C94
:101F4C0000F048FA224EAC4226D300F057FAFEF7C6
:101F5C0021FB204A137B23F00103137306B070BDE1
:101F6C0054F80C3C059354F8103C049354F8143C6E
:101F7C00039354F8183C029354F81C3C019354F806
:101F8C00203C009354E90A2354E90C0100F0D6F8E4
:101F9C0054F8303C5E65CEE7D4E90A23B3F1FF3F39
:101FAC0008BFB2F1FF3F05D052EA0301206803D10C
:101FBC0000F0E4FA3034C6E73146183000F080FC0B
:101FCC00F8E700BFED0300248442000884420008B7
:101FDC00F33800081801002406480021064A08B509
:101FEC00121A01F032FC0548054A0021121A01F0C0
:101FFC002CFC08BD88000024F00300240000002005
:10200C000000002070B5002386B00122144E01930D
:10201C000446144D06EBC0161349CDE904230F22D8
:10202C00CDE9023214234FF4A07203FB00554FF498
:10203C00C0700E4B00FB04113046009500F07EF88A
:10204C00737B0B4A23F00403EE602C7473734FF410
:10205C00046304FB033313446B6006B070BD00BF14
:10206C0098000024BC030024400C002461380008B4
:10207C0000040024BFB50020FFF734FF274B83F387
:10208C000888274D0024F023264F85F82230EC7762
:10209C002C766C76AC7685F820406B6A43F4E023A2
:1020AC006B62FEF791FCFEF7AFFD4FF0FF33AB62B6
:1020BC00EB62FEF76FFE1C4DFEF7CAFD1B4800F0ED
:1020CC008BF801F094FBFEF7D3FA0120FFF70AFF1F
:1020DC000220FFF707FF00F0C5F9154B15494FF427
:1020EC0080625D612846144B009405930123CDE971
:1020FC000144CDE903433B4600F020F86A7B0646D9
:10210C00284622F004026A7301F0C1FB2046FFF757
:10211C0079FF3A4631462846FEF758FD400C00241C
:10212C0000ED00E0211F0008180100249801002494
:10213C00BC030024C00D00247546000807322DE9AD
:10214C00F04322F0070285B00E461F46109900F1AD
:10215C0058037F3204460173042122F03F0206F13A
:10216C00400941733F2AA2F14008C0E916334FF0F1
:10217C00000383600F98E373A073C4E9063305D89A
:10218C0083F31188BFF36F8F084602DFB518204622
:10219C002946FEF7A5FA07300E9B314620F00700C2
:1021AC00C4E91898A0662D1A029320460D9B2A4666
:1021BC0001930C9B00933B46FEF7DCFC002363650C
:1021CC00044B9B6803B1DB6E2846E36605B0BDE8A3
:1021DC00F08300BFBC03002440F201138381002371
:1021EC00C0E91833C366014B98607047BC030024E8
:1021FC00094A6FF00A0193689967084958674B6858
:10220C0043F080534B60002383F31188BFF36F8F2F
:10221C009368986F704700BFBC03002400ED00E08A
:10222C0070B590F90D20437B002A36DBD90634D1EA
:10223C001B4C63F07F0322464373E16952F8183F4D
:10224C00934207D1C0E900210860E06111E0994296
:10225C00F8D01B68002BF5D090F90E5093F90E6056
:10226C00B542F4D0AE42F2DD5968C0E900310860E5
:10227C005860A569954200D005B9E568A3685A7BFA
:10228C00D20604D1DA897F2A01D9AA6932B1AB42CC
:10229C0002D0284600F066FA656170BD6361FCE708
:1022AC00BC03002438B590F90D200146437B002A6D
:1022BC0004DA03F07F03437301F0D7FA0D4D2A467D
:1022CC00AB6852F8184F944200D004B9EC688B42BA
:1022DC0007D05A7BD20604D1DA897F2A01D9A269A8
:1022EC002AB1A34202D0204600F03CFA23466B618F
:1022FC0038BD00BFBC03002470B590F90D20014619
:10230C00437B002A04DA03F07F03437301F0ADFA38
:10231C004B7B1C4C63F07F0322464B7352F8183FE7
:10232C00E069934207D1C1E900200160E16111E04D
:10233C009842F8D01B68002BF5D091F90E5093F908
:10234C000E60B542F4D0AE42F2DD5868C1E90030FF
:10235C0001605960A569A368954200D005B9E5688C
:10236C008B4207D05A7BD20604D1DA897F2A01D955
:10237C00AA692AB1AB4202D0284600F0F3F92B46E9
:10238C00636170BDBC03002449B9EFF3058030B91B
:10239C00054B5A699B689A4201D0FFF729BF81F31C
:1023AC001188BFF36F8F7047BC030024034648B9F4
:1023BC00EFF3058232B9064A51699268914201D015
:1023CC00FFF716BF83F31188BFF36F8F704700BF01
:1023DC00BC030024EFF31181102383F31288BFF3A5
:1023EC006F8F054B9A68D37B013BD37381F31188B4
:1023FC00BFF36F8F704700BFBC03002470B5EFF3C1
:10240C001186102383F31288BFF36F8F144DAB68C2
:10241C00DA7B0132DA732A4652F8184F944200D014
:10242C0004B9EC685A7BD20604D1DA897F2A01D927
:10243C00A2692AB1A34202D0204600F093F92346A8
:10244C006B6186F31188BFF36F8FEFF3118010234C
:10245C0083F31288BFF36F8FBDE87040FFF7A6BF00
:10246C00BC030024024B03F11802C3E90622704797
:10247C00BC03002470B5EFF31186102383F312888C
:10248C00BFF36F8F1B4CA168E0690B68814214BFCE
:10249C001A46002249680B605960A368E1692AB9A1
:1024AC00154AC3E900210B60E3610CE093F90E00BF
:1024BC0092F90E50A84218D0854216DD5168C3E936
:1024CC0000210B605360A5690B4B9D4200D005B9F0
:1024DC00E568A3689D4202D0284600F043F93046D7
:1024EC006561BDE87040FFF783BE8A42D8D01268A0
:1024FC00D5E700BFBC030024D403002451EA000339
:10250C002DE9F04105460E4604D1FFF7B3FF00203C
:10251C00BDE8F081431C71F1FF3324DB01F049FA73
:10252C004419EFF31188102383F31288BFF36F8FD4
:10253C000F4F104BB8681860FFF7B4FEB8682A4606
:10254C000D493346183000F0BBF9BA684046537B4E
:10255C0043F004035373FFF74BFE01F02AFA201AE1
:10256C0020EAE070D4E76FF00104241AD9E700BF29
:10257C00BC030024DC030024F338000838B50446FF
:10258C00EFF31185102383F31288BFF36F8F437B16
:10259C005B070FD5183001F0E9F9637B204623F077
:1025AC0004036373FFF73CFE29460548BDE8384039
:1025BC00FFF7EABE85F31188BFF36F8F38BD00BFFC
:1025CC00EE030024014B9868704700BFBC03002445
:1025DC002DE9F8430446077BEFF31185102383F3B1
:1025EC001288BFF36F8F437B190705D585F31188CC
:1025FC00BFF36F8FBDE8F883D90943F008025AD1B5
:10260C004273A36813B1204601F037F904F11800A6
:10261C0004F1580801F0AAF9A66DB04511D04FF09D
:10262C00000976B1304601F028F906F1180001F0E6
:10263C009DF93046C6F87890FFF7F2FDA66DB045CF
:10264C00EFD1DFF8B880D8F808309C423BD1EFF3DB
:10265C000589B9F1000918BF4FF00109D8F81860C5
:10266C00274A964200D00EB9D8F80C60B34202D07B
:10267C00304600F077F8C8F81460B9F1000F02D0BA
:10268C002048FFF7A9FDD8F808309C4231D1EFF370
:10269C00058373BB227BD20718D42846FFF7A8FD0D
:1026AC00FB07A7D5002383F31188BFF36F8F042397
:1026BC00184602DF9EE703F07F0343F008034373E1
:1026CC0001F0D3F89DE74FF00009C7E785F31188B7
:1026DC00BFF36F8F83F31188BFF36F8F04231846FA
:1026EC0002DFEFF31180102383F31288BFF36F8F97
:1026FC00D4E785F31188BFF36F8FD1E7BC030024B7
:10270C00D403002498010024044B0122C01A044B6A
:10271C00C0105843034B1A54704700BF18020024D2
:10272C00ABAAAAAAEE030024C3897F2B12D80A4BAA
:10273C001B6863B1094B90F90E201B689A4209DBA8
:10274C00437BDB0606D1064BC31A18BF012303F0EB
:10275C00010070470023FAE7E4030024E00300249F
:10276C00980000240E4B70B51E7C05460D4C06EBF4
:10277C00460304EBC304204601F0F8F80A4B002290
:10278C0028469A55FFF7D0FF48B1084B2046084918
:10279C001A68013ABDE87040D31700F091B870BDCB
:1027AC00BC03002418020024EE030024E4030024DC
:1027BC001527000838B5EFF31185102383F3128821
:1027CC00BFF36F8F104B114A9C681068A04206D162
:1027DC00FFF7C8FF85F31188BFF36F8F38BD002159
:1027EC001B7C11600A4AD35C002BF3D02046FFF708
:1027FC009BFF0028EED0637BDB0602D12046FFF75F
:10280C007BFD2046E4E700BFBC030024DC0300246E
:10281C00EE0300240A480B4A0B49121A08B501F0C2
:10282C0016F80A480A4A0B49121A01F010F80A481D
:10283C000A4A0B49121ABDE8084001F008B800BF5B
:10284C000000002484000024C4460008000000247A
:10285C0000000024C44600080000002000000020F6
:10286C0048470008024B1868984208BF0020704780
:10287C003C000024034B1B680BB9FFF731BA002056
:10288C00704700BFE803002430B570B10B4B5B6898
:10289C0098420AD0036843B1D3E90421D0E9044536
:1028AC00121941EB0501C3E90421D0E90032136090
:1028BC005A600023C0E9003330BD00BF3C00002447
:1028CC00B3F1FF3F08BFB2F1FF3F2DE9F8430446D7
:1028DC001D469046184664D0A160EFF31187102373
:1028EC0083F31288BFF36F8F013275F1FF331BDB5B
:1028FC00FFF7C0FF18F1010306464FF0010145F147
:10290C0000051B1845EBE075C4E90435FFF7AAFF79
:10291C00DFF8A4E0DEF80480E0B9C4E900E8C8F808
:10292C000040CEF8044027E024496FF00103D1E9C0
:10293C00002500219B1A4FF0FF3262EB0505B3EB2B
:10294C00080365EB0005012B75F10002BCBF0123E8
:10295C000025D9E7D0E9042CD4E90435934275EB72
:10296C000C0920DAD21A43686CEB0505C0E9042582
:10297C00C4E900031C604460FFF774FF84420CD16F
:10298C000F4B1B684BB911B9FFF774FF0646304665
:10299C0000F0D5FF0021FFF725F987F31188BFF36D
:1029AC006F8FBDE8F8839B1A65EB0C054045C4E9B5
:1029BC000435B2D00068AFE73C000024300200249C
:1029CC00E80300242DE9F047EFF31185102383F37E
:1029DC001288BFF36F8FDFF8A4900026DFF8A08079
:1029EC000027C9F80000FFF73DFFD9F80030D8E9FF
:1029FC0000ECD91750B1D0E90442A34271EB020AA2
:102A0C001CDAE41A62EB0102C0E9044213EB0E0378
:102A1C004FF000044CEB01012046C9F80040C8E916
:102A2C00003100F08CFF2146FFF7DCF885F31188AC
:102A3C00BFF36F8FBDE8F047FFF7BCBE14EB0E027F
:102A4C004CEBE473C0E90467C8E90023FFF71CFFF3
:102A5C0085F31188BFF36F8F83689847EFF3118567
:102A6C00102383F31288BFF36F8FD9F800301B1B30
:102A7C00C9F80030FFF7F6FEB7E700BFE803002403
:102A8C003002002410B5EFF31184102383F3128865
:102A9C00BFF36F8FFFF7EEFE054A0346D2E9000144
:102AAC00181841EBE37184F31188BFF36F8F10BDDD
:102ABC0030020024014800F043BB00BF7A460008F6
:102ACC002DE9F04F8DB043680293837815469A0731
:102ADC00804640F10D8100240E78002E00F00A8112
:102AEC00252E0BD04B1C03930134029B41463046E0
:102AFC0098470028C0F2F6800399EDE74E788B1CBE
:102B0C00252E0393F0D00027B946BB46BBF11F0F0F
:102B1C0038D8A6F12003102B0AD8DFE803F02A09D5
:102B2C0009300909092109090928092D09091F007A
:102B3C00A6F13003092B33D92A2E37D11BF0400FC5
:102B4C0055F8043B40F08280002BA7BF4BF0200BC4
:102B5C009946C3F100094BF0280B01E04BF0010B37
:102B6C00039B13F8016B0393002ECFD130E04BF095
:102B7C00020B4BF0040BF3E74BF0080BF0E74BF0B8
:102B8C00100BEDE7BBF17F0F19D8A6F13003092B21
:102B9C00D2D81BF0400F03D00A2101FB0737DFE727
:102BAC000A2101FB09394BF0200BD9E72E2E06D157
:102BBC001BF0400F40F09E804BF0400BD0E76C2E8A
:102BCC0031D02BD8682E36D06A2E3CD04C2E3AD031
:102BDC00002F46F02003B8BF2BF04002A3F1650193
:102BEC00BCBF1FFA82FB0027022901D9612B2FD110
:102BFC00073525F00705DFF8ACA2083507271BF0D1
:102C0C00080F66D00AEB070B56465E4563D1A4EB62
:102C1C000A0A06EB0A02A9EB07096FE1742E9FD092
:102C2C007A2E9DD0D4E71BF0800F18BF4BF4007B9D
:102C3C004BF0800B94E71BF4807F18BF4BF4007BA8
:102C4C004BF4807B8CE74BF4207B89E71F4687E7AE
:102C5C00A6F16301122900F2F080DFE811F01300F5
:102C6C004F00EE00EE00EE00EE004F00EE00EE0026
:102C7C00EE00EE00EE00FE00E900EE00EE001B00A0
:102C8C00EE00AF0055F8043B8DF8183001270DF11C
:102C9C00180AB4E755F804AB834BBAF1000F08BF20
:102CAC009A461BF0400F14BF39464FF0FF31504687
:102CBC0000F099FE0746A2E7029B41462020984768
:102CCC0000280FDB013EB742F6D34C44A41BB1469F
:102CDC0098E74E46F7E716F8010B029B41469847DA
:102CEC00002892DA98F8023043F0040388F8023096
:102CFC004FF0FF3420460DB0BDE8F08F1BF0800F75
:102D0C0034D01BF4007F2CD0073525F00705AA46DC
:102D1C0069685AF8080B2BF010050029ADB237DAA8
:102D2C00404261EB410145F480650DF1180B0A231B
:102D3C005A4600F064FEA0EB0B0301936B0662D5C0
:102D4C00019B25F001019F4289B240F3A180002E26
:102D5C0000F0998015F0100240F09C80BB460D46A7
:102D6C0023E0AA465AF8040BC117D4E7AA461BF471
:102D7C00807F5AF8041B01D10846F5E71BF4007F4D
:102D8C0015BF48B208B241F3C01141F3C031C2E7DC
:102D9C0050EA0103C9D11BF0400FC6D0002FC4D19B
:102DAC002BF0110295B2BB46019740F2064115EA91
:102DBC0001021CBF0BF1010B00222CE02BF01002C6
:102DCC001FFA82FB0A231BF0800C49D01BF4007104
:102DDC001DBF073525F00705AA46AA461ABF5AF8A3
:102DEC00080B69685AF8040B50EA010545D12BF021
:102DFC0016051BF0400FADB242D0002F40D12BF086
:102E0C00170295B2019715F0100248D0019B002EC5
:102E1C0042D103F1010B29075AD4EB0706D5D9454A
:102E2C006FDD0199A9EB0B035F18CB465B4649E0BC
:102E3C004BF0100B10237826C5E7782B04D1C6F184
:102E4C00780343F01003BEE7029B414625209847C8
:102E5C000028FFF647AF023447E608230026B2E706
:102E6C00AA461BF480715AF8040BBDD01BF40071F8
:102E7C001ABFC0B2614680B2B6E72BF0060295B21B
:102E8C000DF1180B54E725F01105ADB2BB468CE7DC
:102E9C000D46B8E73B460D4603F1020BBBE7DDF8E8
:102EAC0004B082E7BC460008B5460008CDE9043200
:102EBC004146029B202098470028FFF613AF049B45
:102ECC00059A01339945F1DCA4EB0B01CC189B4618
:102EDC000AB3029B4146302098470028FFF602AF08
:102EEC008EB901342744019B391B994224DC1D46C1
:102EFC005DBB019AA9EB0B0922445546144691443B
:102F0C0035E0019F92E7023441463046029B9847D8
:102F1C000028E7DAE6E640F206410D42E2D015F071
:102F2C00020F14BF2B20202015F4806F04F1010434
:102F3C00414618BF2D20E9E7029B414630209847B7
:102F4C00002804F10104CEDACCE606AB013D414683
:102F5C00585D029B98470028CADAC3E6029B41469B
:102F6C0020209847002804F10104FFF6BBAEA9EB22
:102F7C000403002BF2DCBFE57047836800EBC10152
:102F8C00B3F5004F2CBF51F8220031F812007047F6
:102F9C0000EBC1018068B0F5004F2CBF41F8223026
:102FAC0021F812307047012208B5FFF7E6FFD04038
:102FBC0008BD836800EBC101B3F5004F08D34B6823
:102FCC001AB143F001034B60704723F00103FAE799
:102FDC004B881AB143F001034B80704723F0010377
:102FEC00FAE753000122FFF7D3BFB0F5004F01F110
:102FFC00010034BF042308230833A0EBD300B0FA3C
:10300C0080F0C0F11F0070472DE9F04186680D4635
:10301C000446FFF7C8FFB6F5004F014601D301285F
:10302C0032D03046FFF7E1FF04EB80010E6996B910
:10303C000122E3688240204613430222E3602B46C0
:10304C000D612946FFF7A4FF032229462046BDE85F
:10305C00F041FFF79DBF022231462046FFF78DFF5E
:10306C002946034607462046FFF792FF03223346C4
:10307C0029462046FFF78CFF39462B462046FFF7A2
:10308C0087FF02223146E1E7BDE8F081B2F5802FDF
:10309C002CBF08230423D21A2DE9F0418C18CD1D26
:1030AC00002625F0070524F00704641B0560EE607C
:1030BC00E40821462046AC60FFF797FF421D013023
:1030CC0031464FEA820205F1100002F10707A2F126
:1030DC001002B8BF3246FF0800F07DFC31463A467C
:1030EC002846FFF77EFFA4EB0708334632463146ED
:1030FC002846FFF74DFF284631460122FFF759FFBE
:10310C0042463946FFF76DFF3B4632463946284664
:10311C00FFF73EFF21462846FFF763FF4346324642
:10312C0021462846FFF734FF214628460122FFF7A7
:10313C0040FF3946BDE8F041FFF766BF00207047FD
:10314C000FB407B504A951F8040B0191FDF750FA1F
:10315C0003B05DF804EB04B070477047012801D14F
:10316C00EFF30583FEF7A6BE01460068FFF7F6BF36
:10317C0000210120FFF7F2BF61B662B680F311881F
:10318C00BFF36F8F704772B6002383F31188BFF3C0
:10319C006F8FBFF34F8F30BF62B6BFF36F8F704727
:1031AC00202809D9B0F1004F08D80138B0FA80F0C6
:1031BC00C0F11F0040007047082070473E20704748
:1031CC0008B5FDF79BFE002008BD01208840704724
:1031DC004FF0B042D2F8803023EA0003C2F88030BE
:1031EC007047032925D8DFE801F0020D121C4FF0BF
:1031FC00B0431A6822EA00021A605A6822EA0002F6
:10320C005A6070474FF0B0431A680243F4E74FF02E
:10321C00B0435A6802435A601A6822EA00021A60E4
:10322C0070474FF0B0431A6802431A605A68104353
:10323C005860704700F003020F2304329200934051
:10324C0043EA900000F00303020C92FAA2F29B00F6
:10325C00B2FA82F203F1B04302F01F0210B5D3F8B8
:10326C000844914024EA10400143C3F8081410BDEF
:10327C000B8882B0C3F30B0303F62C72C2F30B0260
:10328C00202A14D803F1B043486803F511331A68A7
:10329C00024300201A600B88C3F30B0303F1B04305
:1032AC0003F511331B680193019B02B070476FF05B
:1032BC008500FAE70B88C3F30B0303F62C72C2F3F9
:1032CC000B02202A0AD803F1B0434968002003F509
:1032DC0011331A6822EA01021A6070476FF08500F8
:1032EC007047431E042B06D9083805288CBF6FF095
:1032FC008500002070470020704710B50888C0F387
:10330C000B00FFF7EEFF00281DDB4A6893B2C2F3F7
:10331C008454C2F3054203F1B04304FA02F203F5FC
:10332C001133186820EA02021A6049688BB2CA0E7F
:10333C00C1F3054103F1B0438A4003F5113318681A
:10334C00024300201A6010BD436800205B681B69B3
:10335C000B60704743685B68586942400A404240C2
:10336C0000205A617047436800205B689961704780
:10337C004368090400205B6899617047436800202A
:10338C005A6853694B405361704710B5036998688C
:10339C00F8B1884219D1DC680868A142986000D164
:1033AC00D860002008602AB19A680A60DA689960CF
:1033BC0002B9D960002010E0814206D10868206073
:1033CC00D8688142EDD1DC60EBE704460068002848
:1033DC00F2D1002AE8D16FF0150010BD2DE9F041B3
:1033EC0044680120C2F38016C2F3C11C6768884090
:1033FC008E4002F0300527EA0007C2F34122202D4F
:10340C0046EA070600FA01F7666007EB470ED4F8A8
:10341C00088007FB0CFC07FB02F26FEA0E0628EA99
:10342C000E084CEA080CC4F808C0D4F80CC02CEAFE
:10343C000E0C42EA0C02E2600CD1072912D807FAF2
:10344C0001F2206A8A40C2EB02115A4320EA0101C0
:10345C000A43226223682D091E407D4335432560B3
:10346C00BDE8F081020A616A52435243C2EB02107A
:10347C00534321EA00010B436362EBE712F4003C77
:10348C00F8B505460C4613461DD0960714D55007C3
:10349C005DD55022D90611D542F4007203F4C061F7
:1034AC00B1F5806F42D0B1F5C06F19D0B1F5007F86
:1034BC0018D142F0800215E01022EBE79F06EDD503
:1034CC0042F48062EAE7D60305D5D00605D4C2F3F0
:1034DC0040129202E2E73022E0E74FF40072DDE79F
:1034EC0042F4C07213F440372E6908D0306920FAC8
:1034FC0004F1C9075FBF0121A14001433161BCF157
:10350C00000F06D0180314D5696801234968A3403D
:10351C008B61002321466868FFF760FF27B9336988
:10352C0023FA04F2D2070CD40020F8BD42F48072C6
:10353C00D8E75903EDD501212846A140FFF718FF24
:10354C00E7E70122A24023EA02033361ECE76FF0C4
:10355C008500EAE770B50B468968054611B15E68CF
:10356C000C6801B970BD8A682A4002D04B6830469D
:10357C0098471CB1236821461C46F2E72346FAE71C
:10358C00F8B51F46044640680E461546FFF726FF61
:10359C00112F07D101212B0501FA06F104D563681F
:1035AC005B6899610020F8BD2046FFF7E1FEF9E762
:1035BC0030B5036813600579046804EBC504A342B5
:1035CC0002D36FF0010030BD5C798C4201D008331E
:1035DC00F0E70020F7E74368C1F34B1001F01F013F
:1035EC001B68C05801238B4003424FF0000014BFEE
:1035FC00012300231370704710B54368C1F34B10BF
:10360C0001F01F011A68012384588B402343835017
:10361C00002010BD10B54368C1F34B14012201F01A
:10362C001F0118688A40235823EA02032350002004
:10363C0010BD38B504460D46FFF7DEFF294620467F
:10364C00FFF7E8FF002038BDB0F5805F07D0B0F180
:10365C00805F09D1002914BF012002207047002986
:10366C0014BF032004207047002914BF022003203C
:10367C00704743681B68D869DA69C0F3C000D1078A
:10368C00DA6948BF40F002009207DA6948BF40F09F
:10369C0004005107DA6948BF40F02000D20504D578
:1036AC004FF4807240F008001A62C10701D508225D
:1036BC001A62820701D501221A62410701D5022242
:1036CC001A62820601D504221A62704737B5026964
:1036DC000C46436810681D68D9688368DB687BB149
:1036EC0001AA984700280BDB2B6823F400432B60BE
:1036FC0001992CB101EB5401B1FBF4F189B2E960F1
:10370C0003B030BD10B5436810201B68DA6912068F
:10371C00FCD5EFF3118280F31288BFF36F8FDC6955
:10372C00240604D482F31188BFF36F8FEEE79962FD
:10373C0082F31188BFF36F8F10BD43681B68DA6981
:10374C00100701D508221A62DA69920603D55B6A62
:10375C0000200B7070474FF0FF30704710B50269B6
:10376C0004460B46526812680A6042681268126876
:10377C0002F4C062B2F5806F33D0A2F5C060424251
:10378C0042411A7162681268526802F44052B2F5F2
:10379C00805F28D0B2F5405F27D0002A0CBF0122F1
:1037AC0003225A71626812681068116800F01020C8
:1037BC0001F4C061FFF748FF98716268002012683D
:1037CC00926802F44072A2F540714A424A41DA71A1
:1037DC0061680968896811F4804F18BF0322DA7197
:1037EC0010BD0222CDE70022DBE70222D9E77047A9
:1037FC0040B1C368587810F001001EBF1878B0FAB9
:10380C0080F040097047EFF31183102383F3128883
:10381C00BFF36F8FFEE708B5FFF7F5FF10B54369EF
:10382C00044633B90020E268537843F00103537027
:10383C0010BD98470028F5D00028E368B8BF404277
:10384C00FF28A8BFFF201870EDE700F0C4B800F007
:10385C00B4B87047102408B5EFF3118384F31288C1
:10386C00BFF36F8FFFF78FFCF6E7D0E900321360E0
:10387C005A600023C0E90033704708B5FFF7F5FF25
:10388C00437B23F0020343730023836008BD10B510
:10389C00EFF31184102383F31288BFF36F8FFEF7BD
:1038AC00BFFC84F31188BFF36F8F10BD014610B5B8
:1038BC00EFF31184102383F31288BFF36F8F437BD4
:1038CC0013F0280F0AD183680BB1FFF7D6FF4B7B9F
:1038DC00084623F004034B73FEF7A2FC84F3118813
:1038EC00BFF36F8F10BD01211838FFF7DFBF38B55C
:1038FC0004460D46FEF702FE0346B5F1FF3F08BF36
:10390C00B4F1FF3F204614D013F109004FEAE371E4
:10391C0041F100010A2871F100030BD36FF00A0387
:10392C0083424FF004038B4106D30A220023FCF799
:10393C00C7FC38BD0020FCE76FF00040F9E708B584
:10394C000246FEF78FFF70B1D0E904319B1A61EB90
:10395C00E272B3F1004F72F1000104DA002AACBF3D
:10396C001846002008BD6FF00040FBE7024638B552
:10397C00EFF31185102383F31288BFF36F8F036865
:10398C00A3B1FEF76FFF04461046FEF77DFF84429D
:10399C0006D1FEF76FFFFFF7D2FF0021FEF722F9E9
:1039AC00002085F31188BFF36F8F38BD6FF01500C1
:1039BC00F7E708B5FFF766F808BD0A44914200F135
:1039CC00FF3300D1704710B511F8014B03F8014FCC
:1039DC009142F9D110BD02440346934200D1704785
:1039EC0003F8011BF9E710B5024601448A4213465D
:1039FC0003D01C780132002CF8D1181A10BDF0B588
:103A0C00C3F137070446FFB203F01F031046082B1F
:103A1C00E6B233D0102B3ED06508A40844EA81747A
:103A2C0045EAC1752D194FEA910242EB5102290961
:103A3C0041EA02716D1842EB1212290A41EA026145
:103A4C006D1842EB1222290C41EA02416D1842EB2F
:103A5C001242AD1842F10002EC0844EA4274D1085B
:103A6C0004EB8402A6EB4205EDB2092D0CD901340E
:103A7C00A5F10A0541F10001EDB212E0E40844EAB7
:103A8C00417406F00705C908303554EA010200F804
:103A9C00015BBCD1F0BD240944EA017406F00F05AA
:103AAC000909092D84BFED19EDB2EDE70148006855
:083ABC007047000038020024ED
:083AC4003CC8FF7F0100000077
:103ACC00000000006C3B00086106000800000000CC
:103ADC00000000008C3B000800000000CC3C0008FB
:103AEC0000000000EC3C0008000000008C3C0008CA
:103AFC0000000000AC3B000800000000AC3C0008DB
:103B0C00000000000C3D0008000000006C3C0008A8
:103B1C00000000004C3C0008000000002C3C000899
:103B2C00000000000C3C000800000000EC3B00080A
:103B3C0000000000CC3B0008000000004C3D0008D9
:103B4C00000000002C3D00080515000800000000D6
:103B5C00591B000800000000310F00080000000095
:103B6C009D45000800000000B842000866000024D3
:103B7C00000000008512000800000000000000009A
:103B8C004446000868440008A84200087E0000244F
:103B9C000000000000000000000000000000000019
:103BAC007F450008000000000000000064000024B5
:103BBC0058020024BD0F00080000000000000000A7
:103BCC00AA45000848430008844200086800002405
:103BDC00D8020024051600080000000000000000B8
:103BEC00B84500085C430008844200086A000024C1
:103BFC00EC02002405160008000000000000000084
:103C0C00C645000870430008844200086C0000247C
:103C1C00000300240516000800000000000000004E
:103C2C00D445000884430008844200086E00002438
:103C3C00140300240516000800000000000000001A
:103C4C00E2450008984300088442000870000024F4
:103C5C0028030024051600080000000000000000E6
:103C6C00F0450008AC4300088442000872000024B0
:103C7C003C030024051600080000000000000000B2
:103C8C00FE450008C043000884420008740000246C
:103C9C00500300240516000800000000000000007E
:103CAC000C460008D4430008844200087600002427
:103CBC00640300240516000800000000000000004A
:103CCC001A460008E84300088442000878000024E3
:103CDC007803002405160008000000000000000016
:103CEC0028460008FC430008844200087A0000249F
:103CFC008C030024051600080000000000000000E2
:103D0C003646000810440008844200087C00002459
:103D1C00A0030024051600080000000000000000AD
:103D2C00554600086C440008D4420008800000246A
:103D3C0018000024F5170008000000000000000027
:103D4C0065460008B8440008D442000882000024EC
:103D5C0028000024F51700080000000000000000F7
:103D6C00000000007D310008000000007D310008DB
:103D7C00000000007D310008000000007D310008CB
:103D8C00000000007D310008000000007D310008BB
:103D9C007D450008550F00087B450008550F0008AD
:103DAC0079450008550F000877450008550F0008A5
:103DBC0075450008550F0008000000007D31000813
:103DCC00000000007D310008000000007D3100087B
:103DDC00000000007D310008000000007D3100086B
:103DEC00000000007D310008000000007D3100085B
:103DFC00000000007D310008000000007D3100084B
:103E0C00000000007D310008000000007D3100083A
:103E1C00000000007D31000873450008550F0008B4
:103E2C00000000007D310008000000007D3100081A
:103E3C00000000007D310008000000007D3100080A
:103E4C00000000007D310008000000007D310008FA
:103E5C00000000007D310008000000007D310008EA
:103E6C00000000007D310008000000007D310008DA
:103E7C00000000007D310008000000007D310008CA
:103E8C00000000007D310008000000007D310008BA
:103E9C00000000007D310008000000007D310008AA
:103EAC0071450008550F0008000000007D31000826
:103EBC00000000007D310008000000007D3100088A
:103ECC00000000007D310008000000007D3100087A
:103EDC00000000007D310008000000007D3100086A
:103EEC00000000007D310008000000007D3100085A
:103EFC00000000007D310008000000007D3100084A
:103F0C00000000007D310008000000007D31000839
:103F1C00000000007D310008000000007D31000829
:103F2C00000000007D310008000000007D31000819
:103F3C00000000007D310008000000007D31000809
:103F4C00000000007D310008000000007D310008F9
:103F5C00000000007D310008000000007D310008E9
:103F6C00000000007D310008000000007D310008D9
:103F7C00000000007D310008000000007D310008C9
:103F8C00000000007D310008000000007D310008B9
:103F9C00000000007D310008000000007D310008A9
:103FAC00000000007D310008000000007D31000899
:103FBC00000000007D310008000000007D31000889
:103FCC00000000007D310008000000007D31000879
:103FDC00000000007D310008000000007D31000869
:103FEC00000000007D310008000000007D31000859
:103FFC00000000007D310008000000007D31000849
:10400C00000000007D310008000000007D31000838
:10401C00000000007D310008000000007D31000828
:10402C00000000007D310008000000007D31000818
:10403C00000000007D310008000000007D31000808
:10404C00000000007D310008000000007D310008F8
:10405C00000000007D310008000000007D310008E8
:10406C00000000007D310008000000007D310008D8
:10407C00000000007D310008000000007D310008C8
:10408C00000000007D310008000000007D310008B8
:10409C00000000007D310008000000007D310008A8
:1040AC00000000007D310008000000007D31000898
:1040BC00000000007D310008000000007D31000888
:1040CC00000000007D310008000000007D31000878
:1040DC00000000007D310008000000007D31000868
:1040EC00000000007D310008000000007D31000858
:1040FC00000000007D310008000000007D31000848
:10410C00000000007D310008000000007D31000837
:10411C00000000007D310008000000007D31000827
:10412C00000000007D310008000000007D31000817
:10413C00000000007D310008000000007D31000807
:10414C00000000007D310008000000007D310008F7
:10415C00000000007D310008000000007D310008E7
:10416C00000000007D310008000000007D310008D7
:10417C00000000007D310008000000007D310008C7
:10418C00000000007D310008000000007D310008B7
:10419C00000000007D310008000000007D310008A7
:1041AC00000000007D310008000000007D31000897
:1041BC00000000007D310008000000007D31000887
:1041CC00000000007D310008000000007D31000877
:1041DC00000000007D310008000000007D31000867
:1041EC00000000007D310008000000007D31000857
:1041FC00000000007D310008000000007D31000847
:10420C00000000007D310008000000007D31000836
:10421C00000000007D310008000000007D31000826
:10422C00000000007D310008000000007D31000816
:10423C00000000007D310008000000007D31000806
:10424C00000000007D310008000000007D310008F6
:10425C00000000007D310008000000007D310008E6
:10426C00000000007D310008000000007D310008D6
:08427C00000000007D31000884
:10428400893400085533000861330008733300088B
:104294007D3300088933000855150008973300085A
:0442A4000000000016
:1042A800E335000805360008213600083F360008C7
:1042B8007D320008C1320008000000008D1100089E
:0C42C800000000000000000007330008A8
:1042D40047370008113700087F36000885190008A1
:0442E400693700082E
:1042E80005000000F04200080000000834450008FE
:1042F80026000207000000243A45000824000B119C
:104308000000F01F3F450008240004110040003061
:10431800464500081A0008110040003053450008BF
:104328000E00040161450008000000900000001024
:1043380000000002000000240000000000000B063E
:10434800FFFF0000002802580A000000E0000000FB
:1043580000040000FFFF00000024025809000000CC
:10436800E000000000020000FFFF000000200258EB
:1043780008000000E000000000010000FFFF00004E
:10438800001C025807000000E00000008000000048
:10439800FFFF00000018025806000000E0000000BF
:1043A80040000000FFFF0000001402580500000054
:1043B800E000000020000000FFFF0000001002588D
:1043C80004000000E000000010000000FFFF0000F3
:1043D800000C025803000000E00000000800000084
:1043E800FFFF00000008025802000000E000000083
:1043F80004000000FFFF0000000402580100000054
:10440800E000000002000000FFFF0000000002586A
:1044180000000000E0000000010000000C3D000862
:10442800EC3C0008CC3C0008AC3C00088C3C000884
:104438006C3C00084C3C00082C3C00080C3C000874
:10444800EC3B0008CC3B0008000000000000000026
:104458000000000000000000000000000000000054
:1044680000440258004800408C3B0008121200002B
:104478009044000801000000000000000000000057
:104488000000000098440008E80000000000040054
:10449800A044000801000000A84400080200000031
:1044A80007070000000200002707000000000000C6
:1044B800004400408C3B000811120000DC44000856
:1044C80001000000000000000000000000000000E3
:1044D800E4440008E800000000000200EC44000882
:1044E80001000000F444000802000000A7060000D4
:1044F80000020000C706000000000000CC3A0008D7
:10450800CC3A00085C3B0008643B00086C3B0008A0
:104518006C3B00080010000000304C454420626CE1
:10452800696E6B696E672E2E2E200A00464C415329
:1045380048005352414D0053595354454D0053526E
:10454800414D5F4554485F425546005352414D5FC7
:104558004554485F44455343006D656D6F7279401B
:104568003930303030303030000A06050504010398
:1045780001020101010001696E746572727570743F
:104588002D636F6E74726F6C6C65724035383030A5
:104598003030303000726363403538303234343074
:1045A80030006770696F403538303232383030004B
:1045B8006770696F40353830323234303000677098
:1045C800696F403538303232303030006770696F8B
:1045D800403538303231433030006770696F4035CC
:1045E80038303231383030006770696F40353830D4
:1045F8003231343030006770696F403538303231CD
:10460800303030006770696F4035383032304330B1
:1046180030006770696F40353830323038303000DC
:104628006770696F40353830323034303000677029
:10463800696F40353830323030303000726573651C
:10464800742D636F6E74726F6C6C65720073657233
:1046580069616C4034303030343830300073657202
:1046680069616C403430303034343030006D616909
:104678006E002A2A2A20426F6F74696E67205A6575
:1046880070687972204F53206275696C64207634A3
:104698002E312E302D323237312D67363862326561
:1046A80037643637376363202A2A2A0A00286E754A
:0C46B8006C6C29002A666C6F61742A008B
:1046C40049310008E506000800000000CD3100086B
:1046D4000000000000000000000000002000002492
:1046E40000C20100000103000000000030000024AB
:1046F40000C20100000103000090D0033C0000242C
:104704003C000024FF00FF00FF00FF00FF00FF004B
:10471400FF00FF00FF00FF00FF00FF00FF00FF009D
:04472400FF00FF0093
:104728000000000000000000000000000000000081
:104738000000000000000000000000000000000071
:0447480015E015E083
:0400000508000A01E4
:00000001FF
